{"abi":[{"type":"constructor","inputs":[{"name":"_token","type":"address","internalType":"address"}],"stateMutability":"nonpayable"},{"type":"function","name":"balances","inputs":[{"name":"","type":"address","internalType":"address"}],"outputs":[{"name":"","type":"uint256","internalType":"uint256"}],"stateMutability":"view"},{"type":"function","name":"bankTokenBalance","inputs":[],"outputs":[{"name":"","type":"uint256","internalType":"uint256"}],"stateMutability":"view"},{"type":"function","name":"deposit","inputs":[{"name":"amount","type":"uint256","internalType":"uint256"}],"outputs":[],"stateMutability":"nonpayable"},{"type":"function","name":"token","inputs":[],"outputs":[{"name":"","type":"address","internalType":"contract IERC20"}],"stateMutability":"view"},{"type":"function","name":"tokensReceived","inputs":[{"name":"operator","type":"address","internalType":"address"},{"name":"from","type":"address","internalType":"address"},{"name":"value","type":"uint256","internalType":"uint256"},{"name":"data","type":"bytes","internalType":"bytes"}],"outputs":[],"stateMutability":"nonpayable"},{"type":"function","name":"withdraw","inputs":[{"name":"amount","type":"uint256","internalType":"uint256"}],"outputs":[],"stateMutability":"nonpayable"},{"type":"event","name":"Deposit","inputs":[{"name":"user","type":"address","indexed":true,"internalType":"address"},{"name":"amount","type":"uint256","indexed":false,"internalType":"uint256"}],"anonymous":false},{"type":"event","name":"DepositByCallback","inputs":[{"name":"operator","type":"address","indexed":true,"internalType":"address"},{"name":"from","type":"address","indexed":true,"internalType":"address"},{"name":"amount","type":"uint256","indexed":false,"internalType":"uint256"},{"name":"data","type":"bytes","indexed":false,"internalType":"bytes"}],"anonymous":false},{"type":"event","name":"Withdraw","inputs":[{"name":"user","type":"address","indexed":true,"internalType":"address"},{"name":"amount","type":"uint256","indexed":false,"internalType":"uint256"}],"anonymous":false}],"bytecode":{"object":"0x60a060405234801561000f575f5ffd5b5060405161112d38038061112d83398181016040528101906100319190610139565b805f73ffffffffffffffffffffffffffffffffffffffff168173ffffffffffffffffffffffffffffffffffffffff16036100a0576040517f08c379a0000000000000000000000000000000000000000000000000000000008152600401610097906101be565b60405180910390fd5b8073ffffffffffffffffffffffffffffffffffffffff1660808173ffffffffffffffffffffffffffffffffffffffff168152505050506101dc565b5f5ffd5b5f73ffffffffffffffffffffffffffffffffffffffff82169050919050565b5f610108826100df565b9050919050565b610118816100fe565b8114610122575f5ffd5b50565b5f815190506101338161010f565b92915050565b5f6020828403121561014e5761014d6100db565b5b5f61015b84828501610125565b91505092915050565b5f82825260208201905092915050565b7f546f6b656e42616e6b3a20746f6b656e206973207a65726f20616464726573735f82015250565b5f6101a8602083610164565b91506101b382610174565b602082019050919050565b5f6020820190508181035f8301526101d58161019c565b9050919050565b608051610f1d6102105f395f818161024e0152818161037e0152818161041b015281816105f001526107730152610f1d5ff3fe608060405234801561000f575f5ffd5b5060043610610060575f3560e01c806327e235e3146100645780632e1a7d4d146100945780638b3fa37c146100b0578063af686389146100ce578063b6b55f25146100ea578063fc0c546a14610106575b5f5ffd5b61007e600480360381019061007991906107f7565b610124565b60405161008b919061083a565b60405180910390f35b6100ae60048036038101906100a9919061087d565b610138565b005b6100b861037b565b6040516100c5919061083a565b60405180910390f35b6100e860048036038101906100e39190610909565b610419565b005b61010460048036038101906100ff919061087d565b6105ab565b005b61010e610771565b60405161011b91906109e8565b60405180910390f35b5f602052805f5260405f205f915090505481565b5f811161017a576040517f08c379a000000000000000000000000000000000000000000000000000000000815260040161017190610a5b565b60405180910390fd5b805f5f3373ffffffffffffffffffffffffffffffffffffffff1673ffffffffffffffffffffffffffffffffffffffff1681526020019081526020015f205410156101f9576040517f08c379a00000000000000000000000000000000000000000000000000000000081526004016101f090610ac3565b60405180910390fd5b805f5f3373ffffffffffffffffffffffffffffffffffffffff1673ffffffffffffffffffffffffffffffffffffffff1681526020019081526020015f205f8282546102449190610b0e565b925050819055505f7f000000000000000000000000000000000000000000000000000000000000000073ffffffffffffffffffffffffffffffffffffffff1663a9059cbb33846040518363ffffffff1660e01b81526004016102a7929190610b50565b6020604051808303815f875af11580156102c3573d5f5f3e3d5ffd5b505050506040513d601f19601f820116820180604052508101906102e79190610bac565b905080610329576040517f08c379a000000000000000000000000000000000000000000000000000000000815260040161032090610c21565b60405180910390fd5b3373ffffffffffffffffffffffffffffffffffffffff167f884edad9ce6fa2440d8a54cc123490eb96d2768479d49ff9c7366125a94243648360405161036f919061083a565b60405180910390a25050565b5f7f000000000000000000000000000000000000000000000000000000000000000073ffffffffffffffffffffffffffffffffffffffff166370a08231306040518263ffffffff1660e01b81526004016103d59190610c3f565b602060405180830381865afa1580156103f0573d5f5f3e3d5ffd5b505050506040513d601f19601f820116820180604052508101906104149190610c6c565b905090565b7f000000000000000000000000000000000000000000000000000000000000000073ffffffffffffffffffffffffffffffffffffffff163373ffffffffffffffffffffffffffffffffffffffff16146104a7576040517f08c379a000000000000000000000000000000000000000000000000000000000815260040161049e90610d07565b60405180910390fd5b5f83116104e9576040517f08c379a00000000000000000000000000000000000000000000000000000000081526004016104e090610d6f565b60405180910390fd5b825f5f8673ffffffffffffffffffffffffffffffffffffffff1673ffffffffffffffffffffffffffffffffffffffff1681526020019081526020015f205f8282546105349190610d8d565b925050819055508373ffffffffffffffffffffffffffffffffffffffff168573ffffffffffffffffffffffffffffffffffffffff167f4ca8f7a7e79ea5513582b86e70a74cfc52c4d8cf932e242f37217601ac1e416885858560405161059c93929190610e1a565b60405180910390a35050505050565b5f81116105ed576040517f08c379a00000000000000000000000000000000000000000000000000000000081526004016105e490610a5b565b60405180910390fd5b5f7f000000000000000000000000000000000000000000000000000000000000000073ffffffffffffffffffffffffffffffffffffffff166323b872dd3330856040518463ffffffff1660e01b815260040161064b93929190610e4a565b6020604051808303815f875af1158015610667573d5f5f3e3d5ffd5b505050506040513d601f19601f8201168201806040525081019061068b9190610bac565b9050806106cd576040517f08c379a00000000000000000000000000000000000000000000000000000000081526004016106c490610ec9565b60405180910390fd5b815f5f3373ffffffffffffffffffffffffffffffffffffffff1673ffffffffffffffffffffffffffffffffffffffff1681526020019081526020015f205f8282546107189190610d8d565b925050819055503373ffffffffffffffffffffffffffffffffffffffff167fe1fffcc4923d04b559f4d29a8bfc6cda04eb5b0d3c460751c2402c5c5cc9109c83604051610765919061083a565b60405180910390a25050565b7f000000000000000000000000000000000000000000000000000000000000000081565b5f5ffd5b5f5ffd5b5f73ffffffffffffffffffffffffffffffffffffffff82169050919050565b5f6107c68261079d565b9050919050565b6107d6816107bc565b81146107e0575f5ffd5b50565b5f813590506107f1816107cd565b92915050565b5f6020828403121561080c5761080b610795565b5b5f610819848285016107e3565b91505092915050565b5f819050919050565b61083481610822565b82525050565b5f60208201905061084d5f83018461082b565b92915050565b61085c81610822565b8114610866575f5ffd5b50565b5f8135905061087781610853565b92915050565b5f6020828403121561089257610891610795565b5b5f61089f84828501610869565b91505092915050565b5f5ffd5b5f5ffd5b5f5ffd5b5f5f83601f8401126108c9576108c86108a8565b5b8235905067ffffffffffffffff8111156108e6576108e56108ac565b5b602083019150836001820283011115610902576109016108b0565b5b9250929050565b5f5f5f5f5f6080868803121561092257610921610795565b5b5f61092f888289016107e3565b9550506020610940888289016107e3565b945050604061095188828901610869565b935050606086013567ffffffffffffffff81111561097257610971610799565b5b61097e888289016108b4565b92509250509295509295909350565b5f819050919050565b5f6109b06109ab6109a68461079d565b61098d565b61079d565b9050919050565b5f6109c182610996565b9050919050565b5f6109d2826109b7565b9050919050565b6109e2816109c8565b82525050565b5f6020820190506109fb5f8301846109d9565b92915050565b5f82825260208201905092915050565b7f546f6b656e42616e6b3a20616d6f756e74206d757374206265203e20300000005f82015250565b5f610a45601d83610a01565b9150610a5082610a11565b602082019050919050565b5f6020820190508181035f830152610a7281610a39565b9050919050565b7f546f6b656e42616e6b3a20696e73756666696369656e742062616c616e6365005f82015250565b5f610aad601f83610a01565b9150610ab882610a79565b602082019050919050565b5f6020820190508181035f830152610ada81610aa1565b9050919050565b7f4e487b71000000000000000000000000000000000000000000000000000000005f52601160045260245ffd5b5f610b1882610822565b9150610b2383610822565b9250828203905081811115610b3b57610b3a610ae1565b5b92915050565b610b4a816107bc565b82525050565b5f604082019050610b635f830185610b41565b610b70602083018461082b565b9392505050565b5f8115159050919050565b610b8b81610b77565b8114610b95575f5ffd5b50565b5f81519050610ba681610b82565b92915050565b5f60208284031215610bc157610bc0610795565b5b5f610bce84828501610b98565b91505092915050565b7f546f6b656e42616e6b3a207472616e73666572206661696c65640000000000005f82015250565b5f610c0b601a83610a01565b9150610c1682610bd7565b602082019050919050565b5f6020820190508181035f830152610c3881610bff565b9050919050565b5f602082019050610c525f830184610b41565b92915050565b5f81519050610c6681610853565b92915050565b5f60208284031215610c8157610c80610795565b5b5f610c8e84828501610c58565b91505092915050565b7f546f6b656e42616e6b56323a206f6e6c7920626f756e6420746f6b656e2063615f8201527f6e2063616c6c6261636b00000000000000000000000000000000000000000000602082015250565b5f610cf1602a83610a01565b9150610cfc82610c97565b604082019050919050565b5f6020820190508181035f830152610d1e81610ce5565b9050919050565b7f546f6b656e42616e6b56323a2076616c7565206d757374206265203e203000005f82015250565b5f610d59601e83610a01565b9150610d6482610d25565b602082019050919050565b5f6020820190508181035f830152610d8681610d4d565b9050919050565b5f610d9782610822565b9150610da283610822565b9250828201905080821115610dba57610db9610ae1565b5b92915050565b5f82825260208201905092915050565b828183375f83830152505050565b5f601f19601f8301169050919050565b5f610df98385610dc0565b9350610e06838584610dd0565b610e0f83610dde565b840190509392505050565b5f604082019050610e2d5f83018661082b565b8181036020830152610e40818486610dee565b9050949350505050565b5f606082019050610e5d5f830186610b41565b610e6a6020830185610b41565b610e77604083018461082b565b949350505050565b7f546f6b656e42616e6b3a207472616e7366657246726f6d206661696c656400005f82015250565b5f610eb3601e83610a01565b9150610ebe82610e7f565b602082019050919050565b5f6020820190508181035f830152610ee081610ea7565b905091905056fea2646970667358221220f28b6a77dd16449f772245c2bd7a6e346111d66be5e9a6ebb454ec76794b9f1964736f6c634300081e0033","linkReferences":{}},"methodIdentifiers":{"balances(address)":"27e235e3","bankTokenBalance()":"8b3fa37c","deposit(uint256)":"b6b55f25","token()":"fc0c546a","tokensReceived(address,address,uint256,bytes)":"af686389","withdraw(uint256)":"2e1a7d4d"},"id":22}