{"abi":[{"type":"constructor","inputs":[{"name":"_token","type":"address","internalType":"address"}],"stateMutability":"nonpayable"},{"type":"function","name":"balances","inputs":[{"name":"","type":"address","internalType":"address"}],"outputs":[{"name":"","type":"uint256","internalType":"uint256"}],"stateMutability":"view"},{"type":"function","name":"bankTokenBalance","inputs":[],"outputs":[{"name":"","type":"uint256","internalType":"uint256"}],"stateMutability":"view"},{"type":"function","name":"deposit","inputs":[{"name":"amount","type":"uint256","internalType":"uint256"}],"outputs":[],"stateMutability":"nonpayable"},{"type":"function","name":"token","inputs":[],"outputs":[{"name":"","type":"address","internalType":"contract IERC20"}],"stateMutability":"view"},{"type":"function","name":"withdraw","inputs":[{"name":"amount","type":"uint256","internalType":"uint256"}],"outputs":[],"stateMutability":"nonpayable"},{"type":"event","name":"Deposit","inputs":[{"name":"user","type":"address","indexed":true,"internalType":"address"},{"name":"amount","type":"uint256","indexed":false,"internalType":"uint256"}],"anonymous":false},{"type":"event","name":"Withdraw","inputs":[{"name":"user","type":"address","indexed":true,"internalType":"address"},{"name":"amount","type":"uint256","indexed":false,"internalType":"uint256"}],"anonymous":false}],"bytecode":{"object":"0x60a060405234801561000f575f5ffd5b50604051610d02380380610d0283398181016040528101906100319190610137565b5f73ffffffffffffffffffffffffffffffffffffffff168173ffffffffffffffffffffffffffffffffffffffff160361009f576040517f08c379a0000000000000000000000000000000000000000000000000000000008152600401610096906101bc565b60405180910390fd5b8073ffffffffffffffffffffffffffffffffffffffff1660808173ffffffffffffffffffffffffffffffffffffffff1681525050506101da565b5f5ffd5b5f73ffffffffffffffffffffffffffffffffffffffff82169050919050565b5f610106826100dd565b9050919050565b610116816100fc565b8114610120575f5ffd5b50565b5f815190506101318161010d565b92915050565b5f6020828403121561014c5761014b6100d9565b5b5f61015984828501610123565b91505092915050565b5f82825260208201905092915050565b7f546f6b656e42616e6b3a20746f6b656e206973207a65726f20616464726573735f82015250565b5f6101a6602083610162565b91506101b182610172565b602082019050919050565b5f6020820190508181035f8301526101d38161019a565b9050919050565b608051610afb6102075f395f8181610227015281816103570152818161043701526105ba0152610afb5ff3fe608060405234801561000f575f5ffd5b5060043610610055575f3560e01c806327e235e3146100595780632e1a7d4d146100895780638b3fa37c146100a5578063b6b55f25146100c3578063fc0c546a146100df575b5f5ffd5b610073600480360381019061006e919061063a565b6100fd565b604051610080919061067d565b60405180910390f35b6100a3600480360381019061009e91906106c0565b610111565b005b6100ad610354565b6040516100ba919061067d565b60405180910390f35b6100dd60048036038101906100d891906106c0565b6103f2565b005b6100e76105b8565b6040516100f49190610746565b60405180910390f35b5f602052805f5260405f205f915090505481565b5f8111610153576040517f08c379a000000000000000000000000000000000000000000000000000000000815260040161014a906107b9565b60405180910390fd5b805f5f3373ffffffffffffffffffffffffffffffffffffffff1673ffffffffffffffffffffffffffffffffffffffff1681526020019081526020015f205410156101d2576040517f08c379a00000000000000000000000000000000000000000000000000000000081526004016101c990610821565b60405180910390fd5b805f5f3373ffffffffffffffffffffffffffffffffffffffff1673ffffffffffffffffffffffffffffffffffffffff1681526020019081526020015f205f82825461021d919061086c565b925050819055505f7f000000000000000000000000000000000000000000000000000000000000000073ffffffffffffffffffffffffffffffffffffffff1663a9059cbb33846040518363ffffffff1660e01b81526004016102809291906108ae565b6020604051808303815f875af115801561029c573d5f5f3e3d5ffd5b505050506040513d601f19601f820116820180604052508101906102c0919061090a565b905080610302576040517f08c379a00000000000000000000000000000000000000000000000000000000081526004016102f99061097f565b60405180910390fd5b3373ffffffffffffffffffffffffffffffffffffffff167f884edad9ce6fa2440d8a54cc123490eb96d2768479d49ff9c7366125a942436483604051610348919061067d565b60405180910390a25050565b5f7f000000000000000000000000000000000000000000000000000000000000000073ffffffffffffffffffffffffffffffffffffffff166370a08231306040518263ffffffff1660e01b81526004016103ae919061099d565b602060405180830381865afa1580156103c9573d5f5f3e3d5ffd5b505050506040513d601f19601f820116820180604052508101906103ed91906109ca565b905090565b5f8111610434576040517f08c379a000000000000000000000000000000000000000000000000000000000815260040161042b906107b9565b60405180910390fd5b5f7f000000000000000000000000000000000000000000000000000000000000000073ffffffffffffffffffffffffffffffffffffffff166323b872dd3330856040518463ffffffff1660e01b8152600401610492939291906109f5565b6020604051808303815f875af11580156104ae573d5f5f3e3d5ffd5b505050506040513d601f19601f820116820180604052508101906104d2919061090a565b905080610514576040517f08c379a000000000000000000000000000000000000000000000000000000000815260040161050b90610a74565b60405180910390fd5b815f5f3373ffffffffffffffffffffffffffffffffffffffff1673ffffffffffffffffffffffffffffffffffffffff1681526020019081526020015f205f82825461055f9190610a92565b925050819055503373ffffffffffffffffffffffffffffffffffffffff167fe1fffcc4923d04b559f4d29a8bfc6cda04eb5b0d3c460751c2402c5c5cc9109c836040516105ac919061067d565b60405180910390a25050565b7f000000000000000000000000000000000000000000000000000000000000000081565b5f5ffd5b5f73ffffffffffffffffffffffffffffffffffffffff82169050919050565b5f610609826105e0565b9050919050565b610619816105ff565b8114610623575f5ffd5b50565b5f8135905061063481610610565b92915050565b5f6020828403121561064f5761064e6105dc565b5b5f61065c84828501610626565b91505092915050565b5f819050919050565b61067781610665565b82525050565b5f6020820190506106905f83018461066e565b92915050565b61069f81610665565b81146106a9575f5ffd5b50565b5f813590506106ba81610696565b92915050565b5f602082840312156106d5576106d46105dc565b5b5f6106e2848285016106ac565b91505092915050565b5f819050919050565b5f61070e610709610704846105e0565b6106eb565b6105e0565b9050919050565b5f61071f826106f4565b9050919050565b5f61073082610715565b9050919050565b61074081610726565b82525050565b5f6020820190506107595f830184610737565b92915050565b5f82825260208201905092915050565b7f546f6b656e42616e6b3a20616d6f756e74206d757374206265203e20300000005f82015250565b5f6107a3601d8361075f565b91506107ae8261076f565b602082019050919050565b5f6020820190508181035f8301526107d081610797565b9050919050565b7f546f6b656e42616e6b3a20696e73756666696369656e742062616c616e6365005f82015250565b5f61080b601f8361075f565b9150610816826107d7565b602082019050919050565b5f6020820190508181035f830152610838816107ff565b9050919050565b7f4e487b71000000000000000000000000000000000000000000000000000000005f52601160045260245ffd5b5f61087682610665565b915061088183610665565b92508282039050818111156108995761089861083f565b5b92915050565b6108a8816105ff565b82525050565b5f6040820190506108c15f83018561089f565b6108ce602083018461066e565b9392505050565b5f8115159050919050565b6108e9816108d5565b81146108f3575f5ffd5b50565b5f81519050610904816108e0565b92915050565b5f6020828403121561091f5761091e6105dc565b5b5f61092c848285016108f6565b91505092915050565b7f546f6b656e42616e6b3a207472616e73666572206661696c65640000000000005f82015250565b5f610969601a8361075f565b915061097482610935565b602082019050919050565b5f6020820190508181035f8301526109968161095d565b9050919050565b5f6020820190506109b05f83018461089f565b92915050565b5f815190506109c481610696565b92915050565b5f602082840312156109df576109de6105dc565b5b5f6109ec848285016109b6565b91505092915050565b5f606082019050610a085f83018661089f565b610a15602083018561089f565b610a22604083018461066e565b949350505050565b7f546f6b656e42616e6b3a207472616e7366657246726f6d206661696c656400005f82015250565b5f610a5e601e8361075f565b9150610a6982610a2a565b602082019050919050565b5f6020820190508181035f830152610a8b81610a52565b9050919050565b5f610a9c82610665565b9150610aa783610665565b9250828201905080821115610abf57610abe61083f565b5b9291505056fea26469706673582212200faacdf1f831a1ce1c8c66e461651eb6939a959992b16916ae5c10445cd8968064736f6c634300081e0033","linkReferences":{}},"methodIdentifiers":{"balances(address)":"27e235e3","bankTokenBalance()":"8b3fa37c","deposit(uint256)":"b6b55f25","token()":"fc0c546a","withdraw(uint256)":"2e1a7d4d"},"id":22}