{"abi":[{"type":"constructor","inputs":[{"name":"name_","type":"string","internalType":"string"},{"name":"symbol_","type":"string","internalType":"string"}],"stateMutability":"nonpayable"},{"type":"function","name":"allowance","inputs":[{"name":"owner","type":"address","internalType":"address"},{"name":"spender","type":"address","internalType":"address"}],"outputs":[{"name":"","type":"uint256","internalType":"uint256"}],"stateMutability":"view"},{"type":"function","name":"approve","inputs":[{"name":"spender","type":"address","internalType":"address"},{"name":"value","type":"uint256","internalType":"uint256"}],"outputs":[{"name":"","type":"bool","internalType":"bool"}],"stateMutability":"nonpayable"},{"type":"function","name":"balanceOf","inputs":[{"name":"account","type":"address","internalType":"address"}],"outputs":[{"name":"","type":"uint256","internalType":"uint256"}],"stateMutability":"view"},{"type":"function","name":"decimals","inputs":[],"outputs":[{"name":"","type":"uint8","internalType":"uint8"}],"stateMutability":"view"},{"type":"function","name":"mint","inputs":[{"name":"to","type":"address","internalType":"address"},{"name":"amount","type":"uint256","internalType":"uint256"}],"outputs":[],"stateMutability":"nonpayable"},{"type":"function","name":"name","inputs":[],"outputs":[{"name":"","type":"string","internalType":"string"}],"stateMutability":"view"},{"type":"function","name":"symbol","inputs":[],"outputs":[{"name":"","type":"string","internalType":"string"}],"stateMutability":"view"},{"type":"function","name":"totalSupply","inputs":[],"outputs":[{"name":"","type":"uint256","internalType":"uint256"}],"stateMutability":"view"},{"type":"function","name":"transfer","inputs":[{"name":"to","type":"address","internalType":"address"},{"name":"value","type":"uint256","internalType":"uint256"}],"outputs":[{"name":"","type":"bool","internalType":"bool"}],"stateMutability":"nonpayable"},{"type":"function","name":"transferAndCall","inputs":[{"name":"to","type":"address","internalType":"address"},{"name":"value","type":"uint256","internalType":"uint256"}],"outputs":[{"name":"","type":"bool","internalType":"bool"}],"stateMutability":"nonpayable"},{"type":"function","name":"transferAndCall","inputs":[{"name":"to","type":"address","internalType":"address"},{"name":"value","type":"uint256","internalType":"uint256"},{"name":"data","type":"bytes","internalType":"bytes"}],"outputs":[{"name":"","type":"bool","internalType":"bool"}],"stateMutability":"nonpayable"},{"type":"function","name":"transferFrom","inputs":[{"name":"from","type":"address","internalType":"address"},{"name":"to","type":"address","internalType":"address"},{"name":"value","type":"uint256","internalType":"uint256"}],"outputs":[{"name":"","type":"bool","internalType":"bool"}],"stateMutability":"nonpayable"},{"type":"function","name":"transferFromAndCall","inputs":[{"name":"from","type":"address","internalType":"address"},{"name":"to","type":"address","internalType":"address"},{"name":"value","type":"uint256","internalType":"uint256"},{"name":"data","type":"bytes","internalType":"bytes"}],"outputs":[{"name":"","type":"bool","internalType":"bool"}],"stateMutability":"nonpayable"},{"type":"event","name":"Approval","inputs":[{"name":"owner","type":"address","indexed":true,"internalType":"address"},{"name":"spender","type":"address","indexed":true,"internalType":"address"},{"name":"value","type":"uint256","indexed":false,"internalType":"uint256"}],"anonymous":false},{"type":"event","name":"Transfer","inputs":[{"name":"from","type":"address","indexed":true,"internalType":"address"},{"name":"to","type":"address","indexed":true,"internalType":"address"},{"name":"value","type":"uint256","indexed":false,"internalType":"uint256"}],"anonymous":false},{"type":"error","name":"CallFailed","inputs":[{"name":"to","type":"address","internalType":"address"}]},{"type":"error","name":"ERC20InsufficientAllowance","inputs":[{"name":"spender","type":"address","internalType":"address"},{"name":"allowance","type":"uint256","internalType":"uint256"},{"name":"needed","type":"uint256","internalType":"uint256"}]},{"type":"error","name":"ERC20InsufficientBalance","inputs":[{"name":"sender","type":"address","internalType":"address"},{"name":"balance","type":"uint256","internalType":"uint256"},{"name":"needed","type":"uint256","internalType":"uint256"}]},{"type":"error","name":"ERC20InvalidApprover","inputs":[{"name":"approver","type":"address","internalType":"address"}]},{"type":"error","name":"ERC20InvalidReceiver","inputs":[{"name":"receiver","type":"address","internalType":"address"}]},{"type":"error","name":"ERC20InvalidSender","inputs":[{"name":"sender","type":"address","internalType":"address"}]},{"type":"error","name":"ERC20InvalidSpender","inputs":[{"name":"spender","type":"address","internalType":"address"}]},{"type":"error","name":"InvalidERC1363Receiver","inputs":[{"name":"to","type":"address","internalType":"address"}]}],"bytecode":{"object":"0x608060405234801561000f575f5ffd5b50604051611d1e380380611d1e833981810160405281019061003191906101a9565b81818160039081610042919061042f565b508060049081610052919061042f565b50505050506104fe565b5f604051905090565b5f5ffd5b5f5ffd5b5f5ffd5b5f5ffd5b5f601f19601f8301169050919050565b7f4e487b71000000000000000000000000000000000000000000000000000000005f52604160045260245ffd5b6100bb82610075565b810181811067ffffffffffffffff821117156100da576100d9610085565b5b80604052505050565b5f6100ec61005c565b90506100f882826100b2565b919050565b5f67ffffffffffffffff82111561011757610116610085565b5b61012082610075565b9050602081019050919050565b8281835e5f83830152505050565b5f61014d610148846100fd565b6100e3565b90508281526020810184848401111561016957610168610071565b5b61017484828561012d565b509392505050565b5f82601f8301126101905761018f61006d565b5b81516101a084826020860161013b565b91505092915050565b5f5f604083850312156101bf576101be610065565b5b5f83015167ffffffffffffffff8111156101dc576101db610069565b5b6101e88582860161017c565b925050602083015167ffffffffffffffff81111561020957610208610069565b5b6102158582860161017c565b9150509250929050565b5f81519050919050565b7f4e487b71000000000000000000000000000000000000000000000000000000005f52602260045260245ffd5b5f600282049050600182168061026d57607f821691505b6020821081036102805761027f610229565b5b50919050565b5f819050815f5260205f209050919050565b5f6020601f8301049050919050565b5f82821b905092915050565b5f600883026102e27fffffffffffffffffffffffffffffffffffffffffffffffffffffffffffffffff826102a7565b6102ec86836102a7565b95508019841693508086168417925050509392505050565b5f819050919050565b5f819050919050565b5f61033061032b61032684610304565b61030d565b610304565b9050919050565b5f819050919050565b61034983610316565b61035d61035582610337565b8484546102b3565b825550505050565b5f5f905090565b610374610365565b61037f818484610340565b505050565b5b818110156103a2576103975f8261036c565b600181019050610385565b5050565b601f8211156103e7576103b881610286565b6103c184610298565b810160208510156103d0578190505b6103e46103dc85610298565b830182610384565b50505b505050565b5f82821c905092915050565b5f6104075f19846008026103ec565b1980831691505092915050565b5f61041f83836103f8565b9150826002028217905092915050565b6104388261021f565b67ffffffffffffffff81111561045157610450610085565b5b61045b8254610256565b6104668282856103a6565b5f60209050601f831160018114610497575f8415610485578287015190505b61048f8582610414565b8655506104f6565b601f1984166104a586610286565b5f5b828110156104cc578489015182556001820191506020850194506020810190506104a7565b868310156104e957848901516104e5601f8916826103f8565b8355505b6001600288020188555050505b505050505050565b6118138061050b5f395ff3fe608060405234801561000f575f5ffd5b50600436106100cd575f3560e01c80634000aea01161008a57806395d89b411161006457806395d89b4114610237578063a9059cbb14610255578063c1d34b8914610285578063dd62ed3e146102b5576100cd565b80634000aea0146101bb57806340c10f19146101eb57806370a0823114610207576100cd565b806306fdde03146100d1578063095ea7b3146100ef5780631296ee621461011f57806318160ddd1461014f57806323b872dd1461016d578063313ce5671461019d575b5f5ffd5b6100d96102e5565b6040516100e6919061108e565b60405180910390f35b6101096004803603810190610104919061114c565b610375565b60405161011691906111a4565b60405180910390f35b6101396004803603810190610134919061114c565b610397565b60405161014691906111a4565b60405180910390f35b6101576103b9565b60405161016491906111cc565b60405180910390f35b610187600480360381019061018291906111e5565b6103c2565b60405161019491906111a4565b60405180910390f35b6101a56103f0565b6040516101b29190611250565b60405180910390f35b6101d560048036038101906101d09190611395565b6103f8565b6040516101e291906111a4565b60405180910390f35b6102056004803603810190610200919061114c565b610436565b005b610221600480360381019061021c9190611401565b610444565b60405161022e91906111cc565b60405180910390f35b61023f610489565b60405161024c919061108e565b60405180910390f35b61026f600480360381019061026a919061114c565b610519565b60405161027c91906111a4565b60405180910390f35b61029f600480360381019061029a919061142c565b61053b565b6040516102ac91906111a4565b60405180910390f35b6102cf60048036038101906102ca91906114ac565b610580565b6040516102dc91906111cc565b60405180910390f35b6060600380546102f490611517565b80601f016020809104026020016040519081016040528092919081815260200182805461032090611517565b801561036b5780601f106103425761010080835404028352916020019161036b565b820191905f5260205f20905b81548152906001019060200180831161034e57829003601f168201915b5050505050905090565b5f5f61037f610602565b905061038c818585610609565b600191505092915050565b5f6103b1838360405180602001604052805f8152506103f8565b905092915050565b5f600254905090565b5f5f6103cc610602565b90506103d985828561061b565b6103e48585856106ae565b60019150509392505050565b5f6012905090565b5f5f610402610602565b905061040f8186866106ae565b6104188561079e565b1561042a57610429858286866107c0565b5b60019150509392505050565b6104408282610bb7565b5050565b5f5f5f8373ffffffffffffffffffffffffffffffffffffffff1673ffffffffffffffffffffffffffffffffffffffff1681526020019081526020015f20549050919050565b60606004805461049890611517565b80601f01602080910402602001604051908101604052809291908181526020018280546104c490611517565b801561050f5780601f106104e65761010080835404028352916020019161050f565b820191905f5260205f20905b8154815290600101906020018083116104f257829003601f168201915b5050505050905090565b5f5f610523610602565b90506105308185856106ae565b600191505092915050565b5f61054e85610548610602565b8561061b565b6105598585856106ae565b6105628461079e565b1561057457610573848685856107c0565b5b60019050949350505050565b5f60015f8473ffffffffffffffffffffffffffffffffffffffff1673ffffffffffffffffffffffffffffffffffffffff1681526020019081526020015f205f8373ffffffffffffffffffffffffffffffffffffffff1673ffffffffffffffffffffffffffffffffffffffff1681526020019081526020015f2054905092915050565b5f33905090565b6106168383836001610c36565b505050565b5f6106268484610580565b90507fffffffffffffffffffffffffffffffffffffffffffffffffffffffffffffffff8110156106a85781811015610699578281836040517ffb8f41b200000000000000000000000000000000000000000000000000000000815260040161069093929190611556565b60405180910390fd5b6106a784848484035f610c36565b5b50505050565b5f73ffffffffffffffffffffffffffffffffffffffff168373ffffffffffffffffffffffffffffffffffffffff160361071e575f6040517f96c6fd1e000000000000000000000000000000000000000000000000000000008152600401610715919061158b565b60405180910390fd5b5f73ffffffffffffffffffffffffffffffffffffffff168273ffffffffffffffffffffffffffffffffffffffff160361078e575f6040517fec442f05000000000000000000000000000000000000000000000000000000008152600401610785919061158b565b60405180910390fd5b610799838383610e05565b505050565b5f5f8273ffffffffffffffffffffffffffffffffffffffff163b119050919050565b5f5f8573ffffffffffffffffffffffffffffffffffffffff167f88a7ca5c75456956db1e96e88ee87aca8bdad85895835c2dc76fcc96396569cf610802610602565b87878760405160240161081894939291906115f6565b604051602081830303815290604052907bffffffffffffffffffffffffffffffffffffffffffffffffffffffff19166020820180517bffffffffffffffffffffffffffffffffffffffffffffffffffffffff8381831617835250505050604051610882919061167a565b5f604051808303815f865af19150503d805f81146108bb576040519150601f19603f3d011682016040523d82523d5f602084013e6108c0565b606091505b50915091508115610a51576020815103610995575f818060200190518101906108e991906116e5565b90507f88a7ca5c75456956db1e96e88ee87aca8bdad85895835c2dc76fcc96396569cf7bffffffffffffffffffffffffffffffffffffffffffffffffffffffff1916817bffffffffffffffffffffffffffffffffffffffffffffffffffffffff19160361095857505050610bb1565b866040517ffa990d3900000000000000000000000000000000000000000000000000000000815260040161098c919061158b565b60405180910390fd5b6004815103610a50575f602082015190507f88a7ca5c75456956db1e96e88ee87aca8bdad85895835c2dc76fcc96396569cf7bffffffffffffffffffffffffffffffffffffffffffffffffffffffff1916817bffffffffffffffffffffffffffffffffffffffffffffffffffffffff191603610a1357505050610bb1565b866040517ffa990d39000000000000000000000000000000000000000000000000000000008152600401610a47919061158b565b60405180910390fd5b5b50505f8473ffffffffffffffffffffffffffffffffffffffff167e23de29d10a6df0f505e653de9273d99777900150e66e85d025c9286228ccd6610a93610602565b8688878760405180602001604052805f815250604051602401610abb96959493929190611710565b604051602081830303815290604052907bffffffffffffffffffffffffffffffffffffffffffffffffffffffff19166020820180517bffffffffffffffffffffffffffffffffffffffffffffffffffffffff8381831617835250505050604051610b25919061167a565b5f604051808303815f865af19150503d805f8114610b5e576040519150601f19603f3d011682016040523d82523d5f602084013e610b63565b606091505b505090508015610b735750610bb1565b50836040517f201be191000000000000000000000000000000000000000000000000000000008152600401610ba8919061158b565b60405180910390fd5b50505050565b5f73ffffffffffffffffffffffffffffffffffffffff168273ffffffffffffffffffffffffffffffffffffffff1603610c27575f6040517fec442f05000000000000000000000000000000000000000000000000000000008152600401610c1e919061158b565b60405180910390fd5b610c325f8383610e05565b5050565b5f73ffffffffffffffffffffffffffffffffffffffff168473ffffffffffffffffffffffffffffffffffffffff1603610ca6575f6040517fe602df05000000000000000000000000000000000000000000000000000000008152600401610c9d919061158b565b60405180910390fd5b5f73ffffffffffffffffffffffffffffffffffffffff168373ffffffffffffffffffffffffffffffffffffffff1603610d16575f6040517f94280d62000000000000000000000000000000000000000000000000000000008152600401610d0d919061158b565b60405180910390fd5b8160015f8673ffffffffffffffffffffffffffffffffffffffff1673ffffffffffffffffffffffffffffffffffffffff1681526020019081526020015f205f8573ffffffffffffffffffffffffffffffffffffffff1673ffffffffffffffffffffffffffffffffffffffff1681526020019081526020015f20819055508015610dff578273ffffffffffffffffffffffffffffffffffffffff168473ffffffffffffffffffffffffffffffffffffffff167f8c5be1e5ebec7d5bd14f71427d1e84f3dd0314c0f7b2291e5b200ac8c7c3b92584604051610df691906111cc565b60405180910390a35b50505050565b5f73ffffffffffffffffffffffffffffffffffffffff168373ffffffffffffffffffffffffffffffffffffffff1603610e55578060025f828254610e4991906117aa565b92505081905550610f23565b5f5f5f8573ffffffffffffffffffffffffffffffffffffffff1673ffffffffffffffffffffffffffffffffffffffff1681526020019081526020015f2054905081811015610ede578381836040517fe450d38c000000000000000000000000000000000000000000000000000000008152600401610ed593929190611556565b60405180910390fd5b8181035f5f8673ffffffffffffffffffffffffffffffffffffffff1673ffffffffffffffffffffffffffffffffffffffff1681526020019081526020015f2081905550505b5f73ffffffffffffffffffffffffffffffffffffffff168273ffffffffffffffffffffffffffffffffffffffff1603610f6a578060025f8282540392505081905550610fb4565b805f5f8473ffffffffffffffffffffffffffffffffffffffff1673ffffffffffffffffffffffffffffffffffffffff1681526020019081526020015f205f82825401925050819055505b8173ffffffffffffffffffffffffffffffffffffffff168373ffffffffffffffffffffffffffffffffffffffff167fddf252ad1be2c89b69c2b068fc378daa952ba7f163c4a11628f55a4df523b3ef8360405161101191906111cc565b60405180910390a3505050565b5f81519050919050565b5f82825260208201905092915050565b8281835e5f83830152505050565b5f601f19601f8301169050919050565b5f6110608261101e565b61106a8185611028565b935061107a818560208601611038565b61108381611046565b840191505092915050565b5f6020820190508181035f8301526110a68184611056565b905092915050565b5f604051905090565b5f5ffd5b5f5ffd5b5f73ffffffffffffffffffffffffffffffffffffffff82169050919050565b5f6110e8826110bf565b9050919050565b6110f8816110de565b8114611102575f5ffd5b50565b5f81359050611113816110ef565b92915050565b5f819050919050565b61112b81611119565b8114611135575f5ffd5b50565b5f8135905061114681611122565b92915050565b5f5f60408385031215611162576111616110b7565b5b5f61116f85828601611105565b925050602061118085828601611138565b9150509250929050565b5f8115159050919050565b61119e8161118a565b82525050565b5f6020820190506111b75f830184611195565b92915050565b6111c681611119565b82525050565b5f6020820190506111df5f8301846111bd565b92915050565b5f5f5f606084860312156111fc576111fb6110b7565b5b5f61120986828701611105565b935050602061121a86828701611105565b925050604061122b86828701611138565b9150509250925092565b5f60ff82169050919050565b61124a81611235565b82525050565b5f6020820190506112635f830184611241565b92915050565b5f5ffd5b5f5ffd5b7f4e487b71000000000000000000000000000000000000000000000000000000005f52604160045260245ffd5b6112a782611046565b810181811067ffffffffffffffff821117156112c6576112c5611271565b5b80604052505050565b5f6112d86110ae565b90506112e4828261129e565b919050565b5f67ffffffffffffffff82111561130357611302611271565b5b61130c82611046565b9050602081019050919050565b828183375f83830152505050565b5f611339611334846112e9565b6112cf565b9050828152602081018484840111156113555761135461126d565b5b611360848285611319565b509392505050565b5f82601f83011261137c5761137b611269565b5b813561138c848260208601611327565b91505092915050565b5f5f5f606084860312156113ac576113ab6110b7565b5b5f6113b986828701611105565b93505060206113ca86828701611138565b925050604084013567ffffffffffffffff8111156113eb576113ea6110bb565b5b6113f786828701611368565b9150509250925092565b5f60208284031215611416576114156110b7565b5b5f61142384828501611105565b91505092915050565b5f5f5f5f60808587031215611444576114436110b7565b5b5f61145187828801611105565b945050602061146287828801611105565b935050604061147387828801611138565b925050606085013567ffffffffffffffff811115611494576114936110bb565b5b6114a087828801611368565b91505092959194509250565b5f5f604083850312156114c2576114c16110b7565b5b5f6114cf85828601611105565b92505060206114e085828601611105565b9150509250929050565b7f4e487b71000000000000000000000000000000000000000000000000000000005f52602260045260245ffd5b5f600282049050600182168061152e57607f821691505b602082108103611541576115406114ea565b5b50919050565b611550816110de565b82525050565b5f6060820190506115695f830186611547565b61157660208301856111bd565b61158360408301846111bd565b949350505050565b5f60208201905061159e5f830184611547565b92915050565b5f81519050919050565b5f82825260208201905092915050565b5f6115c8826115a4565b6115d281856115ae565b93506115e2818560208601611038565b6115eb81611046565b840191505092915050565b5f6080820190506116095f830187611547565b6116166020830186611547565b61162360408301856111bd565b818103606083015261163581846115be565b905095945050505050565b5f81905092915050565b5f611654826115a4565b61165e8185611640565b935061166e818560208601611038565b80840191505092915050565b5f611685828461164a565b915081905092915050565b5f7fffffffff0000000000000000000000000000000000000000000000000000000082169050919050565b6116c481611690565b81146116ce575f5ffd5b50565b5f815190506116df816116bb565b92915050565b5f602082840312156116fa576116f96110b7565b5b5f611707848285016116d1565b91505092915050565b5f60c0820190506117235f830189611547565b6117306020830188611547565b61173d6040830187611547565b61174a60608301866111bd565b818103608083015261175c81856115be565b905081810360a083015261177081846115be565b9050979650505050505050565b7f4e487b71000000000000000000000000000000000000000000000000000000005f52601160045260245ffd5b5f6117b482611119565b91506117bf83611119565b92508282019050808211156117d7576117d661177d565b5b9291505056fea2646970667358221220a368671ade364b4feeb5455d3a46fac326c3eb6213330fbd4bf0affeb845bb7d64736f6c634300081e0033","linkReferences":{}},"methodIdentifiers":{"allowance(address,address)":"dd62ed3e","approve(address,uint256)":"095ea7b3","balanceOf(address)":"70a08231","decimals()":"313ce567","mint(address,uint256)":"40c10f19","name()":"06fdde03","symbol()":"95d89b41","totalSupply()":"18160ddd","transfer(address,uint256)":"a9059cbb","transferAndCall(address,uint256)":"1296ee62","transferAndCall(address,uint256,bytes)":"4000aea0","transferFrom(address,address,uint256)":"23b872dd","transferFromAndCall(address,address,uint256,bytes)":"c1d34b89"},"id":40}