{"abi":[{"type":"function","name":"buyNFT","inputs":[{"name":"nft","type":"address","internalType":"address"},{"name":"tokenId","type":"uint256","internalType":"uint256"},{"name":"payAmount","type":"uint256","internalType":"uint256"}],"outputs":[],"stateMutability":"nonpayable"},{"type":"function","name":"buyNFT","inputs":[{"name":"nft","type":"address","internalType":"address"},{"name":"tokenId","type":"uint256","internalType":"uint256"}],"outputs":[],"stateMutability":"nonpayable"},{"type":"function","name":"getListing","inputs":[{"name":"nft","type":"address","internalType":"address"},{"name":"tokenId","type":"uint256","internalType":"uint256"}],"outputs":[{"name":"","type":"tuple","internalType":"struct NFTMarket.Listing","components":[{"name":"seller","type":"address","internalType":"address"},{"name":"payToken","type":"address","internalType":"address"},{"name":"price","type":"uint256","internalType":"uint256"},{"name":"active","type":"bool","internalType":"bool"}]}],"stateMutability":"view"},{"type":"function","name":"list","inputs":[{"name":"nft","type":"address","internalType":"address"},{"name":"tokenId","type":"uint256","internalType":"uint256"},{"name":"payToken","type":"address","internalType":"address"},{"name":"price","type":"uint256","internalType":"uint256"}],"outputs":[],"stateMutability":"nonpayable"},{"type":"function","name":"listings","inputs":[{"name":"","type":"address","internalType":"address"},{"name":"","type":"uint256","internalType":"uint256"}],"outputs":[{"name":"seller","type":"address","internalType":"address"},{"name":"payToken","type":"address","internalType":"address"},{"name":"price","type":"uint256","internalType":"uint256"},{"name":"active","type":"bool","internalType":"bool"}],"stateMutability":"view"},{"type":"function","name":"tokensReceived","inputs":[{"name":"","type":"address","internalType":"address"},{"name":"from","type":"address","internalType":"address"},{"name":"value","type":"uint256","internalType":"uint256"},{"name":"data","type":"bytes","internalType":"bytes"}],"outputs":[{"name":"","type":"bytes4","internalType":"bytes4"}],"stateMutability":"nonpayable"},{"type":"event","name":"Listed","inputs":[{"name":"seller","type":"address","indexed":true,"internalType":"address"},{"name":"nft","type":"address","indexed":true,"internalType":"address"},{"name":"tokenId","type":"uint256","indexed":true,"internalType":"uint256"},{"name":"payToken","type":"address","indexed":false,"internalType":"address"},{"name":"price","type":"uint256","indexed":false,"internalType":"uint256"}],"anonymous":false},{"type":"event","name":"Purchased","inputs":[{"name":"buyer","type":"address","indexed":true,"internalType":"address"},{"name":"nft","type":"address","indexed":true,"internalType":"address"},{"name":"tokenId","type":"uint256","indexed":true,"internalType":"uint256"},{"name":"payToken","type":"address","indexed":false,"internalType":"address"},{"name":"price","type":"uint256","indexed":false,"internalType":"uint256"},{"name":"seller","type":"address","indexed":false,"internalType":"address"}],"anonymous":false},{"type":"error","name":"AlreadyListed","inputs":[]},{"type":"error","name":"InvalidPayToken","inputs":[]},{"type":"error","name":"NotApproved","inputs":[]},{"type":"error","name":"NotListed","inputs":[]},{"type":"error","name":"NotNFTOwner","inputs":[]},{"type":"error","name":"PriceZero","inputs":[]},{"type":"error","name":"SafeERC20FailedOperation","inputs":[{"name":"token","type":"address","internalType":"address"}]},{"type":"error","name":"SellerCannotBuy","inputs":[]},{"type":"error","name":"WrongPaymentAmount","inputs":[{"name":"expected","type":"uint256","internalType":"uint256"},{"name":"got","type":"uint256","internalType":"uint256"}]}],"bytecode":{"object":"0x6080604052348015600e575f5ffd5b5061183b8061001c5f395ff3fe608060405234801561000f575f5ffd5b506004361061005f575f3560e01c806207df301461006357806353da6f011461009657806388700d1c146100b2578063a82ba76f146100e2578063af686389146100fe578063ea8cdb1f1461012e575b5f5ffd5b61007d600480360381019061007891906112a9565b61014a565b60405161008d949392919061131f565b60405180910390f35b6100b060048036038101906100ab9190611362565b6101ca565b005b6100cc60048036038101906100c791906112a9565b6101db565b6040516100d99190611432565b60405180910390f35b6100fc60048036038101906100f791906112a9565b61030e565b005b610118600480360381019061011391906114ac565b610449565b604051610125919061156a565b60405180910390f35b61014860048036038101906101439190611583565b610835565b005b5f602052815f5260405f20602052805f5260405f205f9150915050805f015f9054906101000a900473ffffffffffffffffffffffffffffffffffffffff1690806001015f9054906101000a900473ffffffffffffffffffffffffffffffffffffffff1690806002015490806003015f9054906101000a900460ff16905084565b6101d633848484610d06565b505050565b6101e36111c2565b5f5f8473ffffffffffffffffffffffffffffffffffffffff1673ffffffffffffffffffffffffffffffffffffffff1681526020019081526020015f205f8381526020019081526020015f206040518060800160405290815f82015f9054906101000a900473ffffffffffffffffffffffffffffffffffffffff1673ffffffffffffffffffffffffffffffffffffffff1673ffffffffffffffffffffffffffffffffffffffff168152602001600182015f9054906101000a900473ffffffffffffffffffffffffffffffffffffffff1673ffffffffffffffffffffffffffffffffffffffff1673ffffffffffffffffffffffffffffffffffffffff16815260200160028201548152602001600382015f9054906101000a900460ff161515151581525050905092915050565b5f5f5f8473ffffffffffffffffffffffffffffffffffffffff1673ffffffffffffffffffffffffffffffffffffffff1681526020019081526020015f205f8381526020019081526020015f206040518060800160405290815f82015f9054906101000a900473ffffffffffffffffffffffffffffffffffffffff1673ffffffffffffffffffffffffffffffffffffffff1673ffffffffffffffffffffffffffffffffffffffff168152602001600182015f9054906101000a900473ffffffffffffffffffffffffffffffffffffffff1673ffffffffffffffffffffffffffffffffffffffff1673ffffffffffffffffffffffffffffffffffffffff16815260200160028201548152602001600382015f9054906101000a900460ff16151515158152505090506104443384848460400151610d06565b505050565b5f5f5f848481019061045b9190611622565b915091505f5f5f8473ffffffffffffffffffffffffffffffffffffffff1673ffffffffffffffffffffffffffffffffffffffff1681526020019081526020015f205f8381526020019081526020015f209050806003015f9054906101000a900460ff166104f4576040517f665c1c5700000000000000000000000000000000000000000000000000000000815260040160405180910390fd5b805f015f9054906101000a900473ffffffffffffffffffffffffffffffffffffffff1673ffffffffffffffffffffffffffffffffffffffff168873ffffffffffffffffffffffffffffffffffffffff160361057b576040517f2aa3c9e900000000000000000000000000000000000000000000000000000000815260040160405180910390fd5b806001015f9054906101000a900473ffffffffffffffffffffffffffffffffffffffff1673ffffffffffffffffffffffffffffffffffffffff163373ffffffffffffffffffffffffffffffffffffffff1614610603576040517f588fb4bb00000000000000000000000000000000000000000000000000000000815260040160405180910390fd5b80600201548714610651578060020154876040517f5755f3b6000000000000000000000000000000000000000000000000000000008152600401610648929190611660565b60405180910390fd5b5f816003015f6101000a81548160ff0219169083151502179055506106e0815f015f9054906101000a900473ffffffffffffffffffffffffffffffffffffffff168260020154836001015f9054906101000a900473ffffffffffffffffffffffffffffffffffffffff1673ffffffffffffffffffffffffffffffffffffffff166110479092919063ffffffff16565b8273ffffffffffffffffffffffffffffffffffffffff166323b872dd825f015f9054906101000a900473ffffffffffffffffffffffffffffffffffffffff168a856040518463ffffffff1660e01b815260040161073f93929190611687565b5f604051808303815f87803b158015610756575f5ffd5b505af1158015610768573d5f5f3e3d5ffd5b50505050818373ffffffffffffffffffffffffffffffffffffffff168973ffffffffffffffffffffffffffffffffffffffff167ff12b17025e57949c69c4b34116a173e7c5ac89d110b1dd7be21948de890f9859846001015f9054906101000a900473ffffffffffffffffffffffffffffffffffffffff168560020154865f015f9054906101000a900473ffffffffffffffffffffffffffffffffffffffff16604051610817939291906116bc565b60405180910390a463af68638960e01b935050505095945050505050565b5f810361086e576040517fe528e11e00000000000000000000000000000000000000000000000000000000815260040160405180910390fd5b5f5f5f8673ffffffffffffffffffffffffffffffffffffffff1673ffffffffffffffffffffffffffffffffffffffff1681526020019081526020015f205f8581526020019081526020015f209050806003015f9054906101000a900460ff1615610904576040517fa3d582ec00000000000000000000000000000000000000000000000000000000815260040160405180910390fd5b5f8573ffffffffffffffffffffffffffffffffffffffff16636352211e866040518263ffffffff1660e01b815260040161093e91906116f1565b602060405180830381865afa158015610959573d5f5f3e3d5ffd5b505050506040513d601f19601f8201168201806040525081019061097d919061171e565b90503373ffffffffffffffffffffffffffffffffffffffff168173ffffffffffffffffffffffffffffffffffffffff16146109e4576040517f4088c61c00000000000000000000000000000000000000000000000000000000815260040160405180910390fd5b3073ffffffffffffffffffffffffffffffffffffffff168673ffffffffffffffffffffffffffffffffffffffff1663081812fc876040518263ffffffff1660e01b8152600401610a3491906116f1565b602060405180830381865afa158015610a4f573d5f5f3e3d5ffd5b505050506040513d601f19601f82011682018060405250810190610a73919061171e565b73ffffffffffffffffffffffffffffffffffffffff1614158015610b0e57508573ffffffffffffffffffffffffffffffffffffffff1663e985e9c533306040518363ffffffff1660e01b8152600401610acd929190611749565b602060405180830381865afa158015610ae8573d5f5f3e3d5ffd5b505050506040513d601f19601f82011682018060405250810190610b0c919061179a565b155b15610b45576040517fc19f17a900000000000000000000000000000000000000000000000000000000815260040160405180910390fd5b60405180608001604052803373ffffffffffffffffffffffffffffffffffffffff1681526020018573ffffffffffffffffffffffffffffffffffffffff168152602001848152602001600115158152505f5f8873ffffffffffffffffffffffffffffffffffffffff1673ffffffffffffffffffffffffffffffffffffffff1681526020019081526020015f205f8781526020019081526020015f205f820151815f015f6101000a81548173ffffffffffffffffffffffffffffffffffffffff021916908373ffffffffffffffffffffffffffffffffffffffff1602179055506020820151816001015f6101000a81548173ffffffffffffffffffffffffffffffffffffffff021916908373ffffffffffffffffffffffffffffffffffffffff160217905550604082015181600201556060820151816003015f6101000a81548160ff021916908315150217905550905050848673ffffffffffffffffffffffffffffffffffffffff163373ffffffffffffffffffffffffffffffffffffffff167f9d133375c43796e4b98269466fc0e5dfed7e902390be3b5f30c70a391f0439e18787604051610cf69291906117c5565b60405180910390a4505050505050565b5f5f5f8573ffffffffffffffffffffffffffffffffffffffff1673ffffffffffffffffffffffffffffffffffffffff1681526020019081526020015f205f8481526020019081526020015f209050806003015f9054906101000a900460ff16610d9b576040517f665c1c5700000000000000000000000000000000000000000000000000000000815260040160405180910390fd5b805f015f9054906101000a900473ffffffffffffffffffffffffffffffffffffffff1673ffffffffffffffffffffffffffffffffffffffff168573ffffffffffffffffffffffffffffffffffffffff1603610e22576040517f2aa3c9e900000000000000000000000000000000000000000000000000000000815260040160405180910390fd5b80600201548214610e70578060020154826040517f5755f3b6000000000000000000000000000000000000000000000000000000008152600401610e67929190611660565b60405180910390fd5b5f816003015f6101000a81548160ff021916908315150217905550610f0185825f015f9054906101000a900473ffffffffffffffffffffffffffffffffffffffff168360020154846001015f9054906101000a900473ffffffffffffffffffffffffffffffffffffffff1673ffffffffffffffffffffffffffffffffffffffff1661109a909392919063ffffffff16565b8373ffffffffffffffffffffffffffffffffffffffff166323b872dd825f015f9054906101000a900473ffffffffffffffffffffffffffffffffffffffff1687866040518463ffffffff1660e01b8152600401610f6093929190611687565b5f604051808303815f87803b158015610f77575f5ffd5b505af1158015610f89573d5f5f3e3d5ffd5b50505050828473ffffffffffffffffffffffffffffffffffffffff168673ffffffffffffffffffffffffffffffffffffffff167ff12b17025e57949c69c4b34116a173e7c5ac89d110b1dd7be21948de890f9859846001015f9054906101000a900473ffffffffffffffffffffffffffffffffffffffff168560020154865f015f9054906101000a900473ffffffffffffffffffffffffffffffffffffffff16604051611038939291906116bc565b60405180910390a45050505050565b61105483838360016110ef565b61109557826040517f5274afe700000000000000000000000000000000000000000000000000000000815260040161108c91906117ec565b60405180910390fd5b505050565b6110a8848484846001611151565b6110e957836040517f5274afe70000000000000000000000000000000000000000000000000000000081526004016110e091906117ec565b60405180910390fd5b50505050565b5f5f63a9059cbb60e01b9050604051815f525f1960601c86166004528460245260205f60445f5f8b5af1925060015f51148316611143578383151615611137573d5f823e3d81fd5b5f873b113d1516831692505b806040525050949350505050565b5f5f6323b872dd60e01b9050604051815f525f1960601c87166004525f1960601c86166024528460445260205f60645f5f8c5af1925060015f511483166111af5783831516156111a3573d5f823e3d81fd5b5f883b113d1516831692505b806040525f606052505095945050505050565b60405180608001604052805f73ffffffffffffffffffffffffffffffffffffffff1681526020015f73ffffffffffffffffffffffffffffffffffffffff1681526020015f81526020015f151581525090565b5f5ffd5b5f5ffd5b5f73ffffffffffffffffffffffffffffffffffffffff82169050919050565b5f6112458261121c565b9050919050565b6112558161123b565b811461125f575f5ffd5b50565b5f813590506112708161124c565b92915050565b5f819050919050565b61128881611276565b8114611292575f5ffd5b50565b5f813590506112a38161127f565b92915050565b5f5f604083850312156112bf576112be611214565b5b5f6112cc85828601611262565b92505060206112dd85828601611295565b9150509250929050565b6112f08161123b565b82525050565b6112ff81611276565b82525050565b5f8115159050919050565b61131981611305565b82525050565b5f6080820190506113325f8301876112e7565b61133f60208301866112e7565b61134c60408301856112f6565b6113596060830184611310565b95945050505050565b5f5f5f6060848603121561137957611378611214565b5b5f61138686828701611262565b935050602061139786828701611295565b92505060406113a886828701611295565b9150509250925092565b6113bb8161123b565b82525050565b6113ca81611276565b82525050565b6113d981611305565b82525050565b608082015f8201516113f35f8501826113b2565b50602082015161140660208501826113b2565b50604082015161141960408501826113c1565b50606082015161142c60608501826113d0565b50505050565b5f6080820190506114455f8301846113df565b92915050565b5f5ffd5b5f5ffd5b5f5ffd5b5f5f83601f84011261146c5761146b61144b565b5b8235905067ffffffffffffffff8111156114895761148861144f565b5b6020830191508360018202830111156114a5576114a4611453565b5b9250929050565b5f5f5f5f5f608086880312156114c5576114c4611214565b5b5f6114d288828901611262565b95505060206114e388828901611262565b94505060406114f488828901611295565b935050606086013567ffffffffffffffff81111561151557611514611218565b5b61152188828901611457565b92509250509295509295909350565b5f7fffffffff0000000000000000000000000000000000000000000000000000000082169050919050565b61156481611530565b82525050565b5f60208201905061157d5f83018461155b565b92915050565b5f5f5f5f6080858703121561159b5761159a611214565b5b5f6115a887828801611262565b94505060206115b987828801611295565b93505060406115ca87828801611262565b92505060606115db87828801611295565b91505092959194509250565b5f6115f18261121c565b9050919050565b611601816115e7565b811461160b575f5ffd5b50565b5f8135905061161c816115f8565b92915050565b5f5f6040838503121561163857611637611214565b5b5f6116458582860161160e565b925050602061165685828601611295565b9150509250929050565b5f6040820190506116735f8301856112f6565b61168060208301846112f6565b9392505050565b5f60608201905061169a5f8301866112e7565b6116a760208301856112e7565b6116b460408301846112f6565b949350505050565b5f6060820190506116cf5f8301866112e7565b6116dc60208301856112f6565b6116e960408301846112e7565b949350505050565b5f6020820190506117045f8301846112f6565b92915050565b5f815190506117188161124c565b92915050565b5f6020828403121561173357611732611214565b5b5f6117408482850161170a565b91505092915050565b5f60408201905061175c5f8301856112e7565b61176960208301846112e7565b9392505050565b61177981611305565b8114611783575f5ffd5b50565b5f8151905061179481611770565b92915050565b5f602082840312156117af576117ae611214565b5b5f6117bc84828501611786565b91505092915050565b5f6040820190506117d85f8301856112e7565b6117e560208301846112f6565b9392505050565b5f6020820190506117ff5f8301846112e7565b9291505056fea26469706673582212205962d8fd06c5fbe21f14347cf86e050d79a99ac05b3eb80a833f90919de106a964736f6c634300081e0033","linkReferences":{}},"methodIdentifiers":{"buyNFT(address,uint256)":"a82ba76f","buyNFT(address,uint256,uint256)":"53da6f01","getListing(address,uint256)":"88700d1c","list(address,uint256,address,uint256)":"ea8cdb1f","listings(address,uint256)":"0007df30","tokensReceived(address,address,uint256,bytes)":"af686389"},"id":39}